S0100000636667315F6F75742E73726563FC
S113400070470000000000001D00000000000000D8
S11340101400000000000000040000000000000084
S11340200100000000000000040000000000000087
S11340300000000000000000040000000000000078
S11340402000000000000000080000000000000044
S11340500100000000000000040000000000000057
S113406002000000000000000C000000000000003E
S11340701400000000000000000000000000000028
S1134080100000000000000000000000000000001C
S113409001000000000000002400000000000000F7
S11340A00200000000000000FF000000000000000B
S11340B013000000000000000100000000000000E8
S11340C004000000000000000100000000000000E7
S11340D020000000000000000400000000000000B8
S11340E00C000000000000000F00000000000000B1
S11340F0FCFFFFFFFFFFFFFF0000000000000000C7
S113410000000000000000000000000000000000AB
S1134110000000000000000000000000000000009B
S1134120000000000000000000000000000000008B
S113413010000000000000000C000000000000005F
S1134140000000000000000000000000000000006B
S11341500000000000000000120034120000000003
S11341600A000000000000000B0000000000000036
S11341700C000000000000000D0000000000000022
S11341800E000000000000000F000000000000000E
S113419010000000000000001100000000000000FA
S11341A012000000000000001300000000000000E6
S11341B01E000000000000001900000000000000C4
S11341C01B000000000000000000000000000000D0
S11341D004000000000000000C00000000000000CB
S11341E000000000000000000000000000000000CB
S11341F002000000000000000200000000000000B7
S113420000000000000000000000000000000000AA
S1134210000000000000000000000000000000009A
S113422010000000000000000C000000000000006E
S1134230170000000000000004000000000000005F
S11342402C0000000000000004000000000000003A
S11342500000000000000000010000000000000059
S113426004000000000000001C000000000000002A
S1134270000800000000000014000000000000001E
S113428015000000000000001600000000000000FF
S113429017000000000000001800000000000000EB
S11342A019000000000000001A00000000000000D7
S11342B00100000000000000FFFFFFFFFFFFFFFF01
S11342C01D000000000000001400000000000000B9
S11342D024000000000000001300000000000000A3
S11342E008000000000000001400000000000000AE
S11342F002000000000000000100000000000000B7
S113430008000000000000000000000000000000A1
S11343100100000000000000040000000000000094
S11343200000000000000000100000000000000079
S11343300400000000000000000000000000000075
S11343400000000000000000010000000000000068
S11343500C00000000000000180000000000000035
S11343600000000000000000000000000000040045
S11343700000000000000000000000000000000039
S1134380080000000000000004000000000000001D
S11343900800000000000000080000000000000009
S11343A00F000000000000000100000000000000F9
S11343B01E000000000000001F00000000000000BC
S11343C000000000000000002100000000000000C8
S11343D02200000000000000230000000000000094
S11343E010000000000000000100000000000000B8
S11343F000000000000000007F000000000000003A
S11344000F00000000000000010000000000000098
S11344100C00000000000000080000000000000084
S11344207856341200000000020000000000000072
S11344300400000000000000000000000000000074
S1134440FFFFFF7F000000001000000000000000DC
S11344500200000000000000040000000000000052
S11344600800000000000000100000000000000030
S1134470FF7F0000000000000400000000000000B6
S113448008000000000000001C0000000000000004
S11344900100000000000000100000000000000007
S11344A020000000000000000400000000000000E4
S11344B003000000000000000400000000000000F1
S11344C004000000000000000400000000000000E0
S11344D000000000000000000100000000000000D7
S11344E000000000000000000000000000000000C8
S11344F000000000000000000000000000000000B8
S113450000000000000000000400000000000000A3
S11345100000000000000000040000000000000093
S11345201C00000000000000080000000000000063
S1134530050000000000000004000000000000006E
S113454008000000000000001B0000000000000044
S113455000000000000000001C000000000000003B
S11345601D00000000000000000200000000000028
S11345700000000000000000010000000000000036
S1134580FFFFFFFFFFFFFFFFFFFFFFFFFFFFFFFF37
S1134590FFFFFFFFFFFFFFFFFFFFFFFFFFFFFFFF27
S11345A0FFFFFFFFFFFFFFFF1400000000000000FB
S11345B0FFFFFFFF000000000400000000000000F7
S11345C002000000000000000800000000000000DD
S11345D03200000000000000330000000000000072
S11345E004000000000000000200000000000000C1
S11345F078563412000000000000000000000000A3
S1134600080000000000000000000000000000009E
S11346100000000000000000000000000000000096
S11346200000000000000000010000000000000085
S11346300100000000000000200000000000000055
S11346400000000000000000010000000000000065
S11346500000000000000000040000000000000052
S11346600000000000000000010000000000000045
S1134670020000000000000008000000000000002C
S1134680FFFFFFFFFFFFFFFF01000000000000002D
S1134690FFFFFFFFFFFFFFFFFFFFFFFFFFFFFFFF26
S11346A00900000000000000FFFFFF7F0000000081
S11346B000000000000000001700000000000000DF
S11346C01E000000000000001900000000000000AF
S11346D01B000000000000000400000000000000B7
S11346E01C000000000000000C000000000000009E
S11346F000000000000000000100000000000000B5
S11347001000000000000000010000000000000094
S11347100100000000000000010000000000000093
S11347200100000000000000000000000000000084
S11347302000000000000000010000000000000054
S11347400000000000000000000000000000000065
S11347500C00000000000000010000000000000048
S11347600800000000000000FFFFFF7F00000000C1
S11347700C00000000000000080000000000000021
S11347800000000000000000010000000000000024
S113479018000000000000000800000000000000F5
S11347A0FFFFFFFFFFFFFFFF02000000000000000B
S11347B004000000000000000800000000000000E9
S10B47C00200000000000000EB
S9034000BC
