S00B00007263612E73726563E3
S214004000804500203D960000DD960000DD9600000D
S214004010DD960000DD960000DD960000DD960000CF
S214004020DD960000DD960000DD960000DD960000BF
S214004030DD960000DD960000919800009197000044
S21400404091970000919700009197000091970000CB
S21400405091970000919700009197000091970000BB
S21400406091970000919700009197000091970000AB
S214004070919700009197000091970000919700009B
S214004080919700009197000091970000919700008B
S214004090919700009197000091970000919700007B
S2140040A0919700009197000091970000919700006B
S2140040B09197000010B5064C2378002B07D1054BCE
S2140040C0002B02D0044800E000BF0123237010BD7F
S2140040D05809002000000000B8F5010008B5084B9C
S2140040E0002B03D00748084900E000BF07480368D4
S2140040F0002B03D0064B002B00D0984708BDC046C7
S21400410000000000B8F501005C09002054090020FA
S21400411000000000014B18687047C0467409002074
S21400412070B5041E08D0054B1D681E1C03F090F9E0
S21400413033685B1BA342F9D970BDC04674090020E2
S214004140024B1A6801321A607047C0467409002094
S214004150274BFA21186810B589000CF011FD254B85
S214004160013898421DD8244B244A5860106AC02152
S2140041700002000A090601431162002407229C601F
S2140041801A601F4BFC211A6A0A431A62196AFF2238
S21400419012020A431A62196AA022D2020A431A625B
S2140041A000E0FEE7201C0021013400F039F8132C53
S2140041B0F8D1144B144AA4215380144BC90099809B
S2140041C013491961112199703F21D9700221597044
S2140041D0187801431970597EC9090129FBD00D4B87
S2140041E053800D4B41225A700C4A1A8110BDC046AE
S2140041F004000020FFFFFF0010E000E000ED00E0FC
S214004200000400401E400000000C00400040004239
S2140042100018000F2140000000480042FF03000085
S214004220182358431A4A30B5131808241C5701346B
S2140042302DD001291ED000290FD0022927D1815662
S2140042405A68CB01134906205B189918403108704C
S214004250012191405960996119E081560D485A68CC
S214004260CB011B189918403102200870012191409B
S21400427059600CE080565A68C301064802251B1890
S2140042809818403004789140AC430470996030BD73
S214004290FCC701000044004118224243F8B52D4DEA
S2140042A00824AA181457031C621C50D0481C00246B
S2140042B00C284CD80CF05AFC071E1E1E1E1E1E1E76
S2140042C01E0A0A0A0A000124644240E0092902D1B3
S2140042D0181C002103E00A2904D1181C0221FFF74C
S2140042E09FFF23E000240B2931D1181C0121FFF782
S2140042F097FF2CE018225343EA185268EB56012029
S214004300141C04405508DB01002C11D0124C1B195C
S2140043105D1930352E780C010F21314021439A1853
S214004320C9B22970403213781843107000240EE08A
S214004330094E0F279B195D1930352E789A18BE4303
S2140043403143C9B229704032137818431070201CCC
S214004350F8BDC046FCC70100004400411A4A0221CD
S21400436013788B431370517E174BC9090129FAD075
S214004370012816D000280AD002281CD11869134933
S2140043800140196159780F208143032011E0186914
S214004390F02109050143196159780F208143022055
S2140043A007E0186909490140196159780F208143CF
S2140043B000E001435970137802210B431370537EBB
S2140043C0DB09012BFBD0704700400042FFFFFFF0E7
S2140043D038B5182343431A4D0821EB185956041CC8
S2140043E0FFF75AFF182C04D1164B02211A788A437D
S2140043F01A7018235C43144B2D1918691F22297C48
S21400440090431140021C0A431A611A7B02210A4398
S2140044101A73187E01210C4A0842FAD0507EC00951
S2140044208842F6D0508B147E80B2214311765A7E95
S214004430D209012AFBD0044A127BD107F7D438BD33
S214004440FCC70100004800420040004270B50F4D16
S214004450EB78DA0707D50E4B0833DB6F002B00D05E
S21400446098470123EB70002401262B69A6403342AF
S21400447007D0074AE300D3185B68002B00D09847A4
S2140044802E610134102CEFD170BDC04600180040DC
S21400449078090020F0B58FB00D1C029235D0131CA1
S2140044A0023B222B33D80A2A33D1002831DA0123E3
S2140044B04642039305AC0194002E12D0301C02999C
S2140044C00CF0A2FB301C0F1C02990CF059FB631C6D
S2140044D0061C092F01DC303700E0573727701C1CFC
S2140044E0EAE7019A9442E9D0039A2B1C002A02D0EC
S2140044F02D226B1C2A70019A944204D9013C227822
S2140045001A700133F7E700221A70281C05E0002015
S21400451003E00022061C0392CCE70FB0F0BD08B5FE
S214004520FFF7B8FF08BD0000084B1A68002A01D143
S214004530074A1A601A6807491018884202DC186091
S214004540101C01E0012040427047C046000A0020CF
S2140045506C4F0020FF7F00200120404270478023E0
S2140045609B0100204B607047012070470020704779
S21400457000207047031C0020012B03D1131A06D419
S2140045800130FBE7024B092201201A6040427047C7
S214004590684F0020011C08B5014806F073FBFEE7D3
S2140045A0C8C001007047012040427047F0B589B08E
S2140045B0061C019102921C1C0027013705ADEB1961
S2140045C0013B301C019903930CF01EFB029A301C31
S2140045D0535C039A019913700CF0D2FA061C0B2F49
S2140045E001D00028E9D10E9B002B09D0231C5A1EAF
S2140045F093410F9AE41A002A02D02D20109B984768
S2140046003E1CA64208D20F9A2020002A00D0302056
S214004610109B98470136F4E70E9A002A05D00F9BA8
S214004620002B02D12D20109A9047013FE85D109B89
S2140046309847002FF9D109B0F0BD0000F0B5051C71
S21400464085B00C1C161C2878002872D0252801D0AE
S21400465001356CE06878302802D0AA1C002102E000
S214004660A878EA1C01210023071C303F151C092FDF
S21400467006D80A256B431B18303B10780132F3E747
S2140046806C2801D11078013564281AD00ED8252858
S2140046904DD003D843424341ED1AD4E7582830D0D2
S2140046A06328D0D12078271DB0473EE0732833D04A
S2140046B002D870281CD0C6E7752810D0782817D0E6
S2140046C0C1E72068271D1C4A002801DB002401E002
S2140046D0404201240191009402960A2119E000222A
S2140046E02068271D0092019102960A21124A10E0C6
S2140046F000222068271D00920191029610210F4A81
S21400470007E00022206800920D4A0191271D0296BC
S2140047101021FFF74BFF08E02368271D18785C1C64
S214004720002802D0B047231CF8E73C1C8BE7B047B4
S21400473089E705B0F0BDC04637C1010026C10100BB
S214004740E1C0010008B503680A1C012B05D0022B46
S21400475009D1011C0831044803E08368011C0C31B0
S214004760181CFFF76BFF08BDF2C001000EB4F0B5D1
S2140047708AB00FAA20CA02A9012302938D60019273
S2140047802C782E1C002C06D104F0E4FE0AB0F0BCF7
S21400479008BC03B01847052BF6D80135252CEFD1F9
S2140047A074780236271C303F351C092F02D834781F
S2140047B00136F7E76C2C01D134780135642C12D021
S2140047C007D8582C0FD0632C0DD0664274412D1B91
S2140047D0D6E7732C07D002D8702C04D0D0E7752CFF
S2140047E001D0782CCCD19C1C1668A4000E51043243
S2140047F00133C5E77047000007B56A4607321170F7
S214004800417D031C0648002904D0197D012301F0D0
S21400481075FD03E0111C012201F008FD0EBDC04627
S214004820DC0A002008B5006900F088FD08BD00001D
S21400483008B5427D031C0548002A03D0197D01F007
S2140048405EF801E001F045F808BDC046DC0A00202D
S21400485008B5427D031C0548002A03D0197D01F0E7
S2140048604EF801E001F035F808BDC046DC0A00202D
S214004870F0B589B00192437D061C0F1C1B4D002B22
S21400488016D0017D281C01F03AF80124002829D111
S214004890391C02A804F09FFA347D02A905A804F08A
S2140048A0BDFA281C211C05AA019B01F045FC12E05C
S2140048B0281C01F00EF80124002813D1391C02A888
S2140048C004F089FA02A905A804F0A8FA281C05A98C
S2140048D0019A01F097FB041C05A804F035FA02A81B
S2140048E004F032FA201C09B0F0BDC046DC0A0020F5
S2140048F038B5141C427D051C0B1C0848002A05D040
S2140049001A1C297D231C01F0F9FC02E0221C01F090
S2140049108DFC431E98414042204038BDDC0A0020F2
S21400492008B5427D031C0548002A03D0197D00F017
S21400493025FD01E000F09CFF08BDC046DC0A002013
S2140049401FB5427D6C46031C0F340D48002A08D064
S214004950197DFA239B000093221C012300F050FFD0
S21400496005E0FA23211C01229B0000F02DFF012800
S21400497001D1207801E00120404204B010BDC046BD
S214004980DC0A002037B5131C427D051C0C1C0848A9
S214004990002A07D0FA2292000092297D221C00F0FD
S2140049A02FFF04E01A1CFA239B0000F00DFF3EBD0B
S2140049B0DC0A002038B5437D051C0B4C002B0AD0C2
S2140049C0017D201C00F09BFF00280CD0297D201CB8
S2140049D001F0F4FC07E0201C00F07BFF002802D06A
S2140049E0201C01F059FD38BDDC0A0020F0B589B066
S2140049F00192437D071C0C1C384E002B33D0017DE2
S214004A00301C00F07CFF0125002863D102A8344941
S214004A1004F0E1F9217902A804F04BFA314D02A81E
S214004A20291C04F02FFA617902A804F042FA291C26
S214004A3002A804F027FAA17902A804F03AFA291C81
S214004A4002A804F01FFAE17902A804F032FA3C7DCD
S214004A5002A905A804F0E2F9301C211C05AA019B56
S214004A6001F06AFB2FE0301C00F033FF0125002820
S214004A7030D11B4902A804F0AEF9217902A804F04F
S214004A8018FA184D02A8291C04F0FCF9617902A84E
S214004A9004F00FFA291C02A804F0F4F9A17902A880
S214004AA004F007FA291C02A804F0ECF9E17902A840
S214004AB004F0FFF902A905A804F0B0F9301C05A916
S214004AC0019A01F09FFA051C05A804F03DF902A81A
S214004AD004F03AF9281C09B0F0BDC046DC0A0020F4
S214004AE020C5010093C1010038B5041C064D0F28EF
S214004AF003D8281C302103F094F8281C211C10220F
S214004B0003F019F938BDC046F80F0020F8B5234C5D
S214004B102349201C03F0A6F800260125214F291C56
S214004B20381C04F069FB381C04F0AAFB002815D1D9
S214004B301D49201C03F065F8281CFFF7D5FF201C34
S214004B40402D06D1194903F079F8194B01221A7045
S214004B5002E0184903F072F8013610E004280ED17E
S214004B60201C154903F04DF80F2D03D8201C3021CA
S214004B7003F057F8201C291C102203F0E0F801353A
S214004B80EDB27F2DCAD1201C002E01D10B4900E0CA
S214004B900B4903F053F8301CF8BDC046F80F002050
S214004BA080C10100301F002095C10100B4C1010082
S214004BB0180A0020BEC10100D2C10100EDC10100EB
S214004BC003C2010013B50024211C221C231C0094E0
S214004BD00D4804F0F3F90D49FA239B008B600C4B4B
S214004BE04C600B600B4B0C750B610B4B4C750093BC
S214004BF00A4B0B4A01930B480B4B02F047F8402137
S214004C000A4800F025FA13BD040A00201C0A0020FA
S214004C1050C10100000B002020C50100C1C40100E6
S214004C20B5C40100340A00205B0700000C0A00200F
S214004C30F0B58B4DE1218BB04902281C02F042FFF3
S214004C40281C02F0F3FF281C02F0F0FF8549281C00
S214004C5002F0E3FF844E281C311C03F003F8834F58
S214004C60E122381C8249520200F0DAFF2C1C3E1C5E
S214004C70012804D1281C7F4902F0CFFFFEE7022856
S214004C801BD17D49281C02F0EDFF7C49281C02F050
S214004C90C4FF07A8391C01F015F80799281C02F074
S214004CA0E1FF07A804F050F87549281C02F0B5FF8C
S214004CB0281C744902F0D6FFFEE77349281C02F050
S214004CC0ACFF6E49281C02F0A8FF07A8391C00F0AC
S214004CD0F9FF0799281C02F0C5FF07A804F034F86E
S214004CE0381C01F093F8002802D0281C674901E020
S214004CF06749281C02F091FF07AD5B4904A804F041
S214004D006AF85949281C04F066F804A92A1C301CC5
S214004D1001F0F6F8071C281C04F016F804A804F0A6
S214004D2013F8201C002F12D05A4902F076FF201CE0
S214004D30594902F072FF281C311C01F0FBFB201CB5
S214004D40079902F08FFF281C03F0FEFF02E053498C
S214004D5002F063FF301C01F0DCFC002802D0201CAF
S214004D604F4901E04F49201C02F057FF301C01F06C
S214004D705BFC002802D0201C4B4901E04B49201C5C
S214004D8002F04BFF18200021FFF74AFA484804F0CB
S214004D90D7F9484F3B78002B5CD1FFF7B7FE3B783E
S214004DA0002B4CD06E460F364348311C00F0DEF91F
S214004DB00190002805D0201C404902F022FF0198EF
S214004DC038E03F49201C02F01CFF3078FFF78CFECD
S214004DD0201C02F02BFF3378502B30D13949201C91
S214004DE002F02CFF344804A900F0C6F9061C201C6B
S214004DF0002E04D0344902F004FF301C04E033498E
S214004E0002F0FFFE6B46187CFFF76EFE201C02F0D9
S214004E100DFF2948291C00F0D5F9061C201C002E81
S214004E2004D02B4902F0EDFE301C03E0294902F0C5
S214004E30E8FE2878FFF758FE201C02F0F7FE3B78C5
S214004E40002BA6D1201C244902F0F8FE2348FFF7C9
S214004E5067F99EE7201C224902F004FF0BB0F0BD64
S214004E60F80F00200DC2010020C50100DC0A00205A
S214004E70181400201CC201003DC201005CC20100E3
S214004E8052C2010068C2010080C201008BC201004C
S214004E909BC20100ACC20100BEC20100C3C2010039
S214004EA0D5C20100E6C20100F8C2010004C3010039
S214004EB0301F0020180A00200C0A002011C3010031
S214004EC027C301003BC3010052C3010069C30100B0
S214004ED07AC3010091C30100A2C301008813000039
S214004EE0C4C30100000000007FB502A801F088FEE0
S214004EF0474E4849301C02F090FE1820FFF768FA2B
S214004F00041C211C0A22301C02F0FFFE221C02A8F0
S214004F10414901F09BFE4149301C02F07EFE404CA8
S214004F2000210A1C201C00F0F3F8201C00F038F9C1
S214004F30201C00F04DF9201C00F0B5F80EF08AFA9F
S214004F40324B314A0DF02EF80223041C0D1C009340
S214004F50221C0B1C301C02F0C3FF02A83149221C85
S214004F602B1C01F07FFE304D3049281C02AA00237E
S214004F7001F0E0FE041E1CD0301C2D4902F072FE2B
S214004F80A31C06D00835211CE86F01F051FF011C58
S214004F9000E02849301C02F051FE211C0A22301C79
S214004FA002F0B3FE301C244902F05CFE2348FFF7F3
S214004FB0B7F8FA208000FFF7B3F8002CD3D12049C9
S214004FC0301C02F04FFEFA20C000FFF7A9F8301C94
S214004FD002F0C9FC002812DD301C02F0CEFC301CAA
S214004FE0184902F01AFE301C02F0BDFC0028FADD5B
S214004FF0301C154902F011FE301C02F0BEFC02A85F
S21400500001F016FE7FBDC0460000000000005940BB
S214005010F80F0020DBC3010006C401000CC4010029
S2140050200C0A002036C40100340A002020C5010006
S2140050303BC40100D0C3010053C401008813000024
S21400504076C4010084C40100ABC40100C046C0465B
S214005050024B01720360024B4360704703D90000A5
S2140050605704000010B5081C0C1C00210BF0A6FE0F
S214005070002809D0FC21201C89050BF043FF0EF008
S2140050805BFA0EF0A9FF08E0FC218905201C0CF055
S21400509081FA0EF051FA0EF0EBFE0EF09FFA0CF0CD
S2140050A0E9FB00B210BD00687047000070B5094CFF
S2140050B0151C0E1C017A201C04F09EF86B1E9D41E8
S2140050C0311C201C03F0FEFFE9B2201C04F0A2F8FD
S2140050D070BDC046301F002070B5094C0E1C017A0A
S2140050E0201C151C04F088F8311C201C03F0EAFF75
S2140050F0291C201C03F0E6FF201C04F0C1F870BD3C
S214005100301F002008B50A1C0321FFF7E5FF08BD85
S21400511008B53123002900D11123002A01D002222C
S2140051201343191CFFF7EEFF08BD0000F8B5171C67
S2140051300022061CFFF7BAFF0B4C051E0FD1317A72
S214005140201C012204F052F8201C03F0B1FF0128B5
S21400515004D1201C03F0A7FF387000E00425201CB3
S21400516004F08EF8281CF8BD301F002008B50A1C75
S2140051701121FFF7DBFF08BD08B50A1C0021FFF769
S214005180D5FF08BD13B56C460734211CFFF7F4FFA6
S214005190031C0020834202D120780123184016BD4C
S2140051A038B5051C0024281CFFF7ECFF002807D0A4
S2140051B0332C05D001340120E4B2FEF7B1FFF2E74C
S2140051C0201C38BD08B50A1C0321FFF7AFFF08BD39
S2140051D0F7B501210022041CFFF768FF002848D11C
S2140051E0254D217A281C022204F000F8281C03F022
S2140051F05FFF022801D0214C37E0281C03F053FF44
S214005200071C281C03F04FFF6946061C0731201CAC
S214005210FFF7D8FF0028EED16946CA793F023E4321
S2140052206423D1060ED5B6107343DE17F60E144966
S214005230F3185B115A18134950428B4200DD101CBC
S214005240206008E036115E43F017000F80190E4B01
S2140052500011C01860600CF02DFB0C490BF0B6FF77
S214005260011C201CFFF7FEFE041C281C04F008F896
S21400527000E0024C20B2FEBD301F00203930000096
S21400528078ECFFFF87130000A0F6FFFF0000204128
S21400529010B5041C183003F057FD201C10BD38B59F
S2140052A00025041C85604560C5600068A84202D0E1
S2140052B005F004FD256038BD38B5041CE268802082
S2140052C00D1CC000824201D1002019E02368002B8B
S2140052D00FD0A3685A1CA2602268D554E368A2685F
S2140052E00133E3608023DB009A4208D10023A360E9
S2140052F005E005F0D9FC20600028EAD1E4E70120AB
S21400530038BD30B5C468031C101EA04200D9201C4E
S2140053100C18A1420ED05A68551C5D601D68AA5C28
S2140053200A705D688022D200954201D100225A6040
S2140053300131EEE7D9680A1ADA6030BD031CDA6874
S2140053400020824202D01A685B68D05C704700007A
S21400535038B500250423041C03728572457206497D
S214005360183003F065FD201C243040191035FFF777
S21400537096FF502DF7D138BD20C5010010B5447AF0
S214005380002C09D0042906D8032005F083FA032050
S21400539005F044FA00E00024201C10BDF0B58DB0E6
S2140053A0019312AB1B78051C0E1C06A86A490492D2
S2140053B0029303F010FDFEF7ADFE071CFEF7AAFEF3
S2140053C0C01BB0423CD2286803689B6898470028F8
S2140053D038DD28680368DB689847C1B206A803F082
S2140053E05EFD06A83A2103F083FD041C421CE5D0AE
S2140053F006A82C2103F07CFD061C431C26D0A042E8
S21400540024DA06A90022331C09A803F08BFD09A89C
S21400541003F0AEFD071CFFB209A803F095FC042FAD
S2140054200ED8231C721C09A806A903F07BFD09A848
S21400543003F09EFD041C09A803F086FC002C50DC3B
S214005440002682E00120FEF76BFEB7E7231C09A8C2
S21400545006A9002203F066FD09A803F089FD041CD6
S21400546009A803F071FC002CEADD00277BB20233AA
S2140054701B01EB1804330093049B002B05D0029A03
S214005480FF2A15D07BB2934212D0FEF743FE0026C9
S214005490071CFEF73FFE314BC01B9842D0D8286849
S2140054A003689B689847002822DDA64226D31FE0A3
S2140054B0019A0394944200D90392FEF72BFE00262D
S2140054C00590FEF727FE059A244B801A98423CD892
S2140054D0286803689B689847002819DDA64224D3ED
S2140054E016E07BB20133C1D12A1C24320092C3E7F6
S2140054F0A642A5D00120FEF713FECAE728680136AB
S2140055000368DB689847C1B20098FFF7D5FEC6E788
S214005510A64206D1029A039EFF2A16D1139B1F703D
S21400552013E00120FEF7FCFDCBE728680368DB6884
S2140055309847019AC1B2964202D2049B995502E05E
S2140055400098FFF7B9FE0136C2E706A803F0FCFB99
S214005550301C0DB0F0BDC04620C50100B70B0000E2
S21400556010B5041C206803689B689847002804DD73
S21400557020680368DB689847F4E710BDF0B5041CA4
S21400558087B0051C0E1C18344E4903A803F023FCF4
S214005590201C03A903F0C1FC071C03A803F0D4FBDE
S2140055A0013708D0002300930193281C311C1A1CD5
S2140055B0FFF7F4FE80E0444903A803F00CFC03A9BF
S2140055C0201C03F0AAFC061C03A803F0BDFB03A8DE
S2140055D0013622D03D4903F0FEFB201C03A903F050
S2140055E09CFC061C03A803F0AFFB731C12D0331CF4
S2140055F0721E211C03A803F095FC03A803F0B8FC58
S214005600061C03A803F0A0FB0123B3401E1CAB7AC4
S214005610B34300E00023AB724EE02D4903F0DBFB02
S214005620201C03A903F079FC061C03A803F08CFBDE
S214005630731C13D0331C721E211C03A803F072FCCB
S21400564003A803F095FC061C03A803F07DFB0123CA
S214005650B3401E1CAB7A1E43AE722DE01D4903A854
S21400566003F0B9FB03A9201C03F057FC061C03A893
S21400567003F06AFB032301361DD1174903A803F084
S214005680AAFB03A9201C03F048FC061C03A803F091
S2140056905BFB022301360ED1104903A803F09BFBE7
S2140056A0201C03A903F039FC061C03A803F04CFBDE
S2140056B0013605D004232B72201C094903F0B8FBE1
S2140056C007B0F0BDCAC40100D1C40100D0C40100B7
S2140056D0D8C40100E1C40100F0C40100FCC401000C
S2140056E020C50100F0B58DB0069312AB1F78041CE0
S2140056F0049105923B1EFF2B0CD100231A01A21821
S214005700126B002A02D0139A137003E00133052BA4
S214005710F4D1131C0233180120180430C568002D7C
S21400572005D00499059AFFF7ECFD051C45E0FEF749
S214005730F1FC0390FEF7EEFC039B069AC01A90421B
S2140057403BD2206803689B689847002831DD2068B4
S214005750261C03681836DB689847C1B2301C03F075
S2140057609EFB174909A803F036FB09A9301C03F075
S214005770D4FB079009A803F0E7FA079B013313D080
S214005780FEF7C8FC039A069B0097D118139A091ACD
S2140057900192201C049A059BFFF700FE0949051C90
S2140057A0301C03F045FB08E0201C0021FFF7E6FE56
S2140057B0C7E70120FEF7B4FCBCE7281C0DB0F0BD1F
S2140057C0CAC4010020C50100F0B585B00393437A32
S2140057D00024051C0F1C161CA3420ED1032005F046
S2140057E059F800940194281C391C321C039BFFF7BF
S2140057F079FF041C032005F011F8201C05B0F0BD4D
S214005800F0B585B00393437A0024051C0E1C171CC4
S214005810A34210D004290ED8032005F03BF80194CB
S2140058200096281C391C039A0A9BFFF75BFF041C92
S214005830032004F0F3FF201C05B0F0BD10B5041CD7
S214005840206803689B68984700280DDD2068036879
S214005850DB689847C1B2201C183003F020FB201CE0
S2140058600249FFF78BFEEBE710BDC046B80B000001
S21400587038B5051C032005F00DF86B7A002B18D000
S21400588000231C1CEA18126B002A00D001241033D7
S214005890502BF7D1002C17D1281CFFF7CFFF231C65
S2140058A0EA18126B002A00D001241033502BF7D1CF
S2140058B00AE02B6B0124002B06D1281CFFF7BEFF45
S2140058C02C6B631E9C41E4B2032004F0A7FF201C4F
S2140058D038BD10B5437A041C002083420ED1032045
S2140058E004F0D8FF201CFFF7A9FFA47A013C604211
S2140058F04441E4B2032004F091FF201C10BD38B5EB
S214005900041C407A0D1C002811D0002004290ED853
S214005910032004F0BFFF201CFFF790FFA37A0122AC
S2140059202B411D1C1540032004F078FF281C38BDB1
S214005930F7B5041C0191161C1F1CFEF7EBFB00902C
S214005940FEF7E8FB009B089AC01A904224D2206813
S21400595003689B68984700281ADD2068251C0368A2
S2140059601835DB689847C1B2281C03F098FA281C43
S214005970019903F0D2FA013011D1B268002A10D092
S214005980281C311C03F0C9FA01300AD002201DE0A1
S2140059900120FEF7C5FBD3E70120404216E00120B8
S2140059A014E0BB68002B07D0281C391C03F0B5FA9E
S2140059B0013001D0032009E0FEF7ACFB009A089BFB
S2140059C0D118091A201CFFF7D9FDC0E7FEBD00005C
S2140059D070B58CB0061C03A8151C03F01FFA134CF8
S2140059E006A8211C03F0F7F9211C09A803F0F3F917
S2140059F009AB03A906AA0095301CFFF799FF051C02
S214005A0009A803F0A1F906A803F09EF903A803F07D
S214005A109BF96B1C04D0301C1830211C03F008FACC
S214005A20681E45426841C0B20CB070BD20C501007A
S214005A30F0B58FB0051C05A8171C039303F0EEF90C
S214005A40234C08A8211C03F0C6F9211C0BA803F060
S214005A50C2F9159A0BAB05A90092281C08AAFFF7F5
S214005A6067FF02900BA803F06FF908A803F06CF923
S214005A7005A803F069F9029B012B21D11835391CC2
S214005A80281C03F04AFA0399061C281C03F045FA62
S214005A90031C721C14D0421C12D0BA680BA8B21891
S214005AA0291C03F03FFA0BA9149803F0A7F90BA8DA
S214005AB003F04AF9281C211C03F0BAF9029804E006
S214005AC01498034903F0B4F900200FB0F0BDC046A7
S214005AD020C501001FB5041CFFF7B0FE20680A4968
S214005AE002F0C0F801A8094903F075F9FA2201A9E5
S214005AF09200201CFFF76CFF041C01A803F024F999
S214005B00201C04B010BDC0460CC5010061C50100D4
S214005B101FB5041CFFF792FE20680A4902F0A2F89F
S214005B2001A8094903F057F9FA2201A99200201C9E
S214005B30FFF74EFF041C01A803F006F9201C04B072
S214005B4010BDC0460FC5010061C5010070B5041C3C
S214005B50FFF7FEFB201CFFF7DBFF0025A84222D044
S214005B6020680368DB699847FA20C000FEF7D8FA79
S214005B702068616803689B699847FEF7CBFA061CA5
S214005B80FEF7C8FA094B801B98420CD8201CFFF77A
S214005B90A1FF002803D00648FEF7C2FA01256420BC
S214005BA0FEF7BEFAECE7281C70BDC046B70B000037
S214005BB0DC05000030B5041C8DB00D1CFFF73EFE62
S214005BC02068134902F04EF803A8124903F003F9BF
S214005BD006A8114903F0FFF809A8104903F0FBF8DE
S214005BE0FA239B0003A906AA0193009509AB201C83
S214005BF0FFF71EFF041C09A803F0A6F806A803F08A
S214005C00A3F803A803F0A0F8201C0DB030BDC046D2
S214005C1016C5010061C501001DC501005FC5010074
S214005C2070B586B0041C0D1C68462349161C03F08C
S214005C30D2F8032004F02EFE2B6825609B69311CE9
S214005C40281C66609847201CFFF782FB201CFFF785
S214005C5087FC201CFFF73EFF0125002822D0201CD1
S214005C606946FFF7A7FF154903A803F0B4F868468E
S214005C7003A903F052F9041C03A803F065F80134E5
S214005C8001D000250EE00E4903A803F0A4F86846EC
S214005C9003A903F042F9041C03A803F055F80134E5
S214005CA0EFD10225032004F0B9FD684603F04CF856
S214005CB0281C06B070BDC04620C5010021C50100E5
S214005CC031C5010038B50D1C0749041C03F083F8E4
S214005CD0032004F0DFFD281C211CFFF76BFF0320C8
S214005CE004F09CFD201C38BD20C5010070B58EB0A8
S214005CF002AC0E1C051C1E49201C03F06CF8002E7E
S214005D0001D100242DE0281CFFF798FD28681949CA
S214005D1001F0A8FF184905A803F05DF8174908A880
S214005D2003F059F816490BA803F055F8FA239B0020
S214005D3005A908AA0193281C0BAB0094FFF778FE70
S214005D40051C0BA803F000F808A802F0FDFF05A844
S214005D5002F0FAFF002DD4D0201C03F009F901242C
S214005D60307002A802F0F0FF201C0EB070BDC046D6
S214005D7020C5010041C5010061C5010050C50100F4
S214005D805DC5010070B5041C8CB00D1CFFF756FDF8
S214005D901A49206801F041FF0A22291C206801F0F8
S214005DA0CEFF174903A803F016F8164906A803F015
S214005DB012F8154E09A8311C03F00DF8FA239B00C3
S214005DC003A906AA0093201C09ABFFF7B1FD051C2A
S214005DD009A802F0B9FF06A802F0B6FF03A802F071
S214005DE0B3FF6B1C04D0201C1830311C03F020F8C5
S214005DF0681E45426841C0B20CB070BD64C5010063
S214005E0061C5010073C5010020C5010073B56E466B
S214005E10051C0736032004F03DFD281C311CFFF747
S214005E2065FF0024A04210D03378012B01D1012455
S214005E300BE0281CFFF78AFE002805D0281C01214D
S214005E40FFF7A0FF0028F2D10024032004F0E6FCB0
S214005E50201C76BD70B5041C8CB0151C0E1CFFF7FC
S214005E60EDFC2049206801F0D8FE311C206801F0C6
S214005E70CCFE1D49206801F0D0FE291C206801F0E8
S214005E80C4FE1A49206801F0EDFE194903A802F085
S214005E90A2FF184906A802F09EFF174E09A8311C5B
S214005EA002F099FF154B03A906AA0093201C09AB24
S214005EB0FFF73EFD051C09A802F046FF06A802F003
S214005EC043FF03A802F040FF6B1C04D0201C1830D0
S214005ED0311C02F0ADFF681E45426841C0B20CB0EE
S214005EE070BDC04679C5010088C501008AC501009D
S214005EF061C501008CC5010020C501001027000007
S214005F0070B5041C86B00E1C0320151C04F0C2FCE1
S214005F10311C684602F082FF291C03A802F07EFFAF
S214005F20694603AA201CFFF795FF041C03A802F08D
S214005F300BFF684602F008FF032004F06FFC201CED
S214005F4006B070BDF0B5041C8DB01D1C161C0F1CD1
S214005F50FFF774FC2349206801F05FFE391C2068B7
S214005F6001F053FE2049206801F057FE311C2068DE
S214005F7001F04BFE1D49206801F04FFE0A22291C45
S214005F80206801F0EAFE1A4903A802F024FF194926
S214005F9006A802F020FF184909A802F01CFF174BBC
S214005FA003A906AA0093201C09ABFFF7C1FC051C39
S214005FB009A802F0C9FE06A802F0C6FE03A802F071
S214005FC0C3FE6B1C04D1E81E45426841C0B207E020
S214005FD0201C18300A4902F02BFF012DF3D1281C93
S214005FE00DB0F0BDCBC5010088C50100B2C50100EB
S214005FF061C5010073C50100D9C501001027000066
S21400600020C5010070B5437A041C002086B00E1C23
S214006010151C83421FD1032004F03CFC0F49684640
S21400602002F0D9FE311C03A802F0F8FE2B1C6946CC
S21400603003AA201CFFF786FF051C03A802F084FEB7
S214006040684602F081FE002D01D00123A3720320D2
S21400605004F0E4FB281C06B070BDC046E9C501008C
S214006060F0B5041C8DB01D1C161C0F1CFFF7E6FBBC
S2140060702849206801F0D1FD0A22391C206801F069
S2140060805AFE2549206801F0C8FD311C206801F041
S214006090BCFD2249206801F0C0FD291C206801F0E3
S2140060A0B4FD1F49206801F0B8FD0A221299206845
S2140060B001F053FE1B4903A802F08DFE1A4906A8FC
S2140060C002F089FE194909A802F085FE184B03A9BB
S2140060D006AA0093201C09ABFFF72AFC051C09A89A
S2140060E002F032FE06A802F02FFE03A802F02CFEF5
S2140060F06B1C04D1E81E45426841C0B207E0201C74
S21400610018300C4902F094FE012DF3D1281C0DB076
S214006110F0BDC046F1C5010089C5010088C5010073
S214006120B2C5010061C5010073C50100D9C50100F3
S2140061301027000020C50100F0B5041C89B00D1C16
S214006140171C1E1C0020042927D8607A002824D09B
S214006150032004F09FFB124902A802F03CFE391C03
S21400616005A802F05BFE0096291C02AA05AB201CBF
S214006170FFF776FF061C05A802F0E6FD02A802F06F
S214006180E3FD002E05D00123AB401D1CA37A1D4362
S214006190A572032004F042FB301C09B0F0BDC046D7
S2140061A0E9C50100F0B5041C85B0161C0D1CFFF7F0
S2140061B045FB1949206801F030FD311C0A22206891
S2140061C001F0CBFD154901A802F005FE01A9144A0D
S2140061D0201CFFF7FDFB071C01A802F0B5FD002000
S2140061E0AE19874216D0B54206D0206829780368D3
S2140061F001351B689847F6E70A4901A802F0EBFD4F
S214006200201C01A9084AFFF7E3FB041C01A802F0C2
S2140062109BFD201C05B0F0BDFEC501000AC60100AE
S214006220881300000CC601001027000070B5437AE2
S214006230041C00200E1C151C83420CD1032004F005
S21400624029FB201C311C2A1CFFF7ACFF041C032072
S21400625004F0E4FA201C70BDF0B5041C87B01F1CC7
S2140062600D1C161CFFF7EAFA1E49206801F0D5FC43
S214006270291C0A22206801F05EFD1B49206801F0F7
S214006280CCFC0A22391C206801F067FD174903A8D8
S21400629002F0A1FD03A9164A201CFFF799FB019006
S2140062A003A802F051FD019B0025AB4216D0F5195C
S2140062B0AE4206D020683178036801361B689847DE
S2140062C0F6E70C4903A802F086FD201C03A90A4A3B
S2140062D0FFF77EFB051C03A802F036FD281C07B05E
S2140062E0F0BDC046FEC50100B3C501000AC60100E8
S2140062F0881300000CC6010010270000F8B5041C27
S214006300407A0F1C161C1D1C00280DD0032004F01C
S214006310C1FA201C391C321C2B1CFFF79DFF041CE5
S214006320032004F07BFA201CF8BD000070B5041CA6
S2140063308CB00D1CFFF782FA1B49206801F06DFC3B
S2140063400A22291C206801F0FAFC184903A802F06A
S21400635042FD174906A802F03EFD164E09A8311C5C
S21400636002F039FD144B03A906AA0093201C09ABC2
S214006370FFF7DEFA051C09A802F0E6FC06A802F004
S214006380E3FC03A802F0E0FC6B1C04D0201C1830D1
S214006390311C02F04DFD013D01230020AB4240417F
S2140063A0C0B20CB070BDC04614C6010061C5010085
S2140063B021C6010020C501008813000070B5041C2A
S2140063C00D1C002004291BD8607A002818D0032052
S2140063D004F060FA201C291CFFF7A8FF061E0BD04D
S2140063E0A37A0122AA40023593432D01A3726419B1
S2140063F00023E360A3602361032004F00FFA301C3F
S21400640070BD000070B5061C18368CB0041C311C1C
S2140064101B4801F01DFC201CFFF710FA20681949E4
S21400642001F020FC184903A802F0D5FC174906A87D
S21400643002F0D1FC164D09A8291C02F0CCFC154B25
S21400644003A906AA0093201C09ABFFF771FA041CE7
S21400645009A802F079FC06A802F076FC03A802F070
S21400646073FC631C03D0301C291C02F0E1FC013CC9
S21400647001230020A3424041C0B20CB070BDC0460C
S214006480F80F00202DC6010061C5010073C501008C
S21400649020C501008813000070B5457A041C002052
S2140064A085420FD1032004F0F5F9201CFFF7AAFF60
S2140064B0061E03D0A572E562A5622563032004F0DC
S2140064C0ADF9301C70BD000030B5041C8DB00D1C3D
S2140064D0FFF7B4F92068134901F0C4FB03A812497A
S2140064E002F079FC06A8114902F075FC09A81049CB
S2140064F002F071FCFA239B0003A906AA01930095FB
S21400650009AB201CFFF794FA041C09A802F01CFC37
S21400651006A802F019FC03A802F016FC201C0DB019
S21400652030BDC04639C6010061C501001DC5010069
S2140065305DC5010030B50D1C85B01849041C02F07D
S2140065404AFC032004F0A6F9281C211CFFF7BCFF18
S2140065502221201C02F0CCFC2221051C201C02F06B
S214006560C7FC2221421C201C02F0B3FC031C6A1C40
S2140065700DD0421C0BD06A1C01A8211C02F0D2FCD4
S214006580201C01A902F03AFC01A802F0DDFB032062
S21400659004F044F9201C05B030BDC04620C50100FB
S2140065A070B5041C8CB00D1CFFF748F91A4920681A
S2140065B001F033FB0A22291C206801F0C0FB1749B2
S2140065C003A802F008FC164906A802F004FC154EC3
S2140065D009A8311C02F0FFFBFA239B0003A906AAB8
S2140065E00093201C09ABFFF7A3F9051C09A802F0CD
S2140065F0ABFB06A802F0A8FB03A802F0A5FB6B1CE9
S21400660004D0201C1830311C02F012FC681E4542D3
S2140066106841C0B20CB070BD42C6010061C5010041
S21400662073C5010020C5010038B5051C032004F021
S21400663031F9281C0021FFF7B3FF0024A04201D047
S2140066406C720124032004F0E9F8201C38BD000019
S21400665070B5041C8CB0151C00290BD0FFF7EEF8A3
S21400666020681E4901F0D9FA2068291C0A2201F088
S21400667074FB05E0FFF7E2F82068194901F0F2FA2A
S214006680184903A802F0A7FB174906A802F0A3FBC7
S214006690164E09A8311C02F09EFBFA239B0003A9A4
S2140066A006AA0093201C09ABFFF742F9051C09A8AF
S2140066B002F04AFB06A802F047FB03A802F044FBE0
S2140066C06B1C04D0201C1830311C02F0B1FB681E75
S2140066D045426841C0B20CB070BDC0464DC6010010
S2140066E05DC6010061C5010073C5010020C501003B
S2140066F010B5041C032004F0CDF84E220021FF3212
S214006700201CFFF7A5FF041C032004F087F8201CBC
S21400671010BD08B5FFF7ECFF08BD000010B50B4C28
S2140067200B49201C183002F056FB0023201CC21810
S21400673000211033D162916211635162502BF6D161
S2140067400449054A04F062FA10BDC046DC0A00207F
S21400675020C50100915200000000002080687047AC
S214006760C1607047F8B5051C0F1C161C0024B44207
S21400677008D02B68281CDB689847431C02D0385585
S2140067800134F4E7201CF8BD031CDA68012001324E
S21400679003D19869431E9841C0B270474369002BE5
S2140067A00DD0C269012A0AD95A1C42611970C36900
S2140067B00022013BC361436901201A7000E00020FB
S2140067C07047031CC068421C03D001225242DA60A4
S2140067D00AE01A69002A07D09969002904D0501CDB
S2140067E01861013910789961704710B5202004F0BF
S2140067F05BFA041E03D00021202204F0A9FD201C11
S21400680010BD70B5051C0C1C002C1BD0237C6668C4
S2140068107F2B05D8E168002902D0281CFFF7F1FF7E
S214006820237C042B04D1A069002801D004F046FA8A
S2140068302068002801D004F041FA201C04F03EFA3B
S214006840341CE1E770BD08B5002904D089690A2226
S21400685001F057FA00E0081C08BD00000000000028
S214006860F7B5061C002952D08D69CC69281C211C5E
S2140068702A4B294A0AF04AFA002806D0301C2C492E
S21400688001F0CBF980231B06E418211C281C0AF013
S214006890E3FA071C0A22391C301C01F040FA25498D
S2140068A0301C01F0BAF9381C0CF012FE021C0B1C4E
S2140068B0281C211C0CF070FA194A1A4B0BF056F8DB
S2140068C00527041C0D1C184A184B201C291C0BF00D
S2140068D0D3FF0D1C041C0AF0BFFA01900A2201998E
S2140068E0301C01F036FA01980CF0F2FD021C0B1C6D
S2140068F0201C291C0CF050FA084B074A041C0D1CDF
S2140069000AF0FEF9002802D1013F002FDBD100205B
S214006910FEBDC046C046C0460000000000000000A5
S214006920F168E388B5F8D43E00000000000024407B
S21400693077C6010093C1010070B50E1C2049041CE7
S214006940751C01F06AF9002E34D06E1E31780029CD
S21400695030D01F2903D9222901D05C291CD15C2103
S214006960201C01F05EF931780C2917D008D80929C7
S2140069701AD00A2915D008291AD1201C622115E040
S214006980222909D004D80D2912D1201C72210DE02D
S2140069902F2901D05C290BD1201C07E0201C662182
S2140069A004E0201C6E2101E0201C742101F039F95E
S2140069B00135CAE7201C222101F033F9002070BD02
S2140069C08AC5010008B58969FFF7B6FF08BD38B566
S2140069D0041C002929D0CD687B2101F022F9013062
S2140069E001D101201FE0201C002D16D02968FFF7DA
S2140069F0A3FF0130F5D0201C3A2101F012F9013036
S214006A00EFD0201C291C00F013F80130E9D06D6887
S214006A10002DE8D0201C2C21DFE77D2101F001F9B4
S214006A20013043425841404200E0081C38BD000097
S214006A3008B5021C00292BD00B7C0020062B28D87A
S214006A40181C0AF093F804071115191D2100101CD4
S214006A50104904E00B7E101C002B03D00E4901F0F9
S214006A60DCF816E00D49FAE7101CFFF7ECFE10E024
S214006A70101CFFF7F5FE0CE0101CFFF7A3FF08E064
S214006A80101C00F02DF804E0101CFFF7A0FF00E03B
S214006A90081C08BD79C6010084C601007EC6010038
S214006AA070B580256D0088B0281C0E1C04F0FCF81C
S214006AB0041E10D0012252420392084A00230832D4
S214006AC00590311C68460193029300920493079543
S214006AD00693FFF7ADFF201C08B070BD90C60100FE
S214006AE038B5051C00291DD0CC685B2101F099F84B
S214006AF0013001D1012013E0281C002C0AD0211CF3
S214006B00FFF796FF0130F5D06468002CF4D0281CFF
S214006B102C21EBE75D2101F084F801304342584117
S214006B20404200E0081C38BDCB68002A0AD0002B83
S214006B3001D1CA6006E05968002901D00B1CFAE7AB
S214006B405A6093607047F8B5061C0D1C171C1C1E77
S214006B500DD01868002801D004F0B0F8381C04F0F6
S214006B60E7FE291C2060221C301CFFF7DDFFF8BD65
S214006B7010B50C1CFFF739FE002802D00223037460
S214006B80846110BD38B5141C1D1CFFF72EFE0028AE
S214006B9003D08461C5610323037438BD08B5FFF7CD
S214006BA024FE002801D00623037408BD70B50E1C11
S214006BB0191C151C041CFFF7DBFF311C031C2A1CC8
S214006BC0201CFFF7C0FF70BD70B5151C049A059B0E
S214006BD00E1C041CFFF7D6FF311C031C2A1C201CAD
S214006BE0FFF7B1FF70BD000007B500230093034810
S214006BF0191C1A1C02F0E2F907BDC046500B002013
S214006C0038B5094D041C281CFFF7C8FF2060281C57
S214006C10FFF7C4FF054A011C60602368281CFFF7C5
S214006C2092FF201C38BDC046580B0020B8C6010095
S214006C3010B5041C61680448FFF7E3FD0023201C20
S214006C406360236010BDC046580B002010B50C1CB6
S214006C50131C0168221C0248FFF7A8FF10BDC0469F
S214006C60580B002043B50E1C0168009201930248A1
S214006C70321CFFF7A9FF43BD580B002008B541683A
S214006C800148FFF70DFF08BD580B0020F0B585B092
S214006C9003930A9B041C0360B0200E1C171C0DF007
S214006CA05DFA0E4B391C00932368039A01930B9BE5
S214006CB0051C00F0A7F80A4B2B602B1CAC331E609B
S214006CC0231C0833DD670023E218883200210433D2
S214006CD01160202BF8D1201C05B0F0BDBFC6010006
S214006CE0C0C70100F8B5051C0835E86F0F1C03681F
S214006CF00026DB689847041EB44213D1052003F033
S214006D00C9FDE86F00F034F9061E08D0E86F036886
S214006D109B689847002F07D00134BC4204D1052059
S214006D2003F07CFD70B2F8BD0148FDF7F9F9E8E71D
S214006D3088130000F0B50F1C9DB0191C051C161C0E
S214006D40FFF7D0FF041C002C21D1052003F0A2FD84
S214006D502A6810493B1C083503A804F049FDE96F72
S214006D6003AA231C684600F057F9301CFFF786FF7D
S214006D70051C291C684600F053F9002800D1FE24A3
S214006D80281C03F09BFF052003F048FD201C40B2A2
S214006D901DB0F0BDCDC6010007B500230093034823
S214006DA0191C1A1C02F00AF907BDC0465C0B00202D
S214006DB0014B03607047C046F8C6010010B5034B90
S214006DC0041C03600DF0F6F9201C10BDF8C6010087
S214006DD0F8B5051C081C0F1C161C04F0C7FD84B271
S214006DE0002E04D0231CB44200D9331C9CB22312BC
S214006DF02B706C700235281C391C221C04F01AFEFD
S214006E002819F8BD10B5C360029B02810361039B7D
S214006E10064C021C436198320023046041601360F4
S214006E2053609360D360136110BDC046F8C601007E
S214006E300131C9B2072903D8024B8900C85800E0BF
S214006E400148704794C7010018C70100102370B5A9
S214006E5000220B70041C0D1C881C1849FFF7B8FF95
S214006E60042303700223437021690A78002A00D0A5
S214006E708223437061690A78002A02D040221343B5
S214006E8043701E230026C3708670E1680430172204
S214006E90FFF79EFF21690B78B34202D0321CFFF742
S214006EA097FF61690B78002B02D00022FFF790FF56
S214006EB0401BC0B2831E6B7070BDC04626C7010063
S214006EC070B51D1C04AB1B780C1C5B0030210B43FB
S214006ED02370111CA01C0022FFF77AFF061C281C3A
S214006EE004F044FD291C021C301C04F09DF9281CEB
S214006EF004F03CFD3018001BC0B2831E637070BDEA
S214006F00F7B5051C8C46161C183562460093291CDE
S214006F101F1C331C041CFFF7D3FF2368021C5B698D
S214006F20201C291C9847061E0BD0002F09D023686A
S214006F30002200929F69FA23201C291C04225B0071
S214006F40B847301CFEBD38B51D1C82230B70AD2320
S214006F508B70AF230C1CCB70081D111C0022FFF792
S214006F6037FF05700130001BC0B2831E637038BD4A
S214006F700368F7B51B69041C9847002801D1FF2059
S214006F8045E0251C1835291C201CFFF75FFF2368E9
S214006F90021C5B69201C291C98470028EFD0236838
S214006FA0002200929E69201C291C0422194BB0471F
S214006FB0C0B20428E3D1237E202BE0D1E07E002857
S214006FC001D0C0B223E0271C261C1437331C98338C
S214006FD01B68002B17D01A68291C1B79201CFFF78A
S214006FE0B2FF2368021C5B69201C291C98470028F6
S214006FF0C5D02368002200929A69201C9446291C5A
S2140070000522044BE0470436BE42DFD1002040B2E2
S214007010FEBDC046B80B00000160426003727047B8
S21400702008B5031C0A1C006859681B7AFFF768FF3E
S21400703008BDAC30006808B503689B6A9847431ED5
S2140070409841C0B208BD0000014B03607047C046BF
S214007050F8C6010010B5034B041C03600DF0AAF837
S214007060201C10BDF8C6010038B5051C1835041CD8
S2140070707D22281C002104F06BF9281C616804F0AE
S2140070804FFC231CAC331868291C03682289DB6973
S2140070909847431E9841C0B238BDF0B585B00193FD
S2140070A00AAB1B78019D00900E1C029203930024ED
S2140070B0009BAC33186803689B6A9847002825D065
S2140070C0002D23DB009FAC37386803689B68984721
S2140070D0002815D038680368DB689847029B30554F
S2140070E00134A4B29C4211D0039B002B06D0337807
S2140070F0302B03D17278A31E9A4207D0019DE1E798
S2140071000A3D0A202DB2FDF70BF8D1E7201C05B08A
S214007110F0BD10B5041CAC34206803689B6A984721
S214007120002803D0206803685B6A9847012010BDDA
S21400713070B5051CAC3528680E1C0368141C9B6AC9
S2140071409847031C002083420AD02868221C036844
S214007150311C5B68984780B2001B44426041C0B255
S21400716070BD000007B5002300930348191C1A1CC5
S21400717001F024FF07BDC046640B002008B5FCF7ED
S214007180E7FF08BD08B5103003F050FC002800D01B
S214007190FEE708BDF7B571B62E492F4A0B680133D6
S2140071A00B601368013313602C4B186801301860AD
S2140071B01868012849D12A482A4E04682A482B4FC5
S2140071C004600C682A48046034682A482A4E046022
S2140071D014682A4804603C6829482A4F04602A48F4
S2140071E004682A4804603468294804603C682948D2
S2140071F0046029480468844628480460284F2948C3
S2140072003C68294D04602C6828480460284C2948AE
S214007210276807602848294F06683E60104E0027FA
S21400722037600F600F49184E0F60176012490F4AFB
S21400723017603760134A0F60194966461760376053
S2140072400F602F60276007601F6061B61C4BDB6B0A
S2140072509847F7BD7C0B0020940B00206C0B002099
S214007260F40F00209C0B0020F00F0020B40B002031
S214007270800B0020B00B0020700B0020980B002025
S214007280AC0B0020900B00208C0B0020740B002011
S214007290EC0F0020C40B0020A80B0020B80B002029
S2140072A0780B0020A40B0020840B0020BC0B0020D1
S2140072B0C00B0020880B0020E80F0020A00B002049
S2140072C0F49B000008B571B6064B1A6801321A60C6
S2140072D0054B1A6801321A6061B6044BDB6D98479D
S2140072E008BDC046B40B00207C0B0020F49B0000B9
S2140072F008B571B6064B1A6801321A60054B1A6853
S21400730001321A6061B6044B5B6E984708BDC046F2
S2140073108C0B00207C0B0020F49B000008B571B697
S214007320064B1A6801321A60054B1A6801321A6059
S21400733061B6044800F04AFB08BDC046700B00204A
S2140073407C0B0020C80B002008B571B6064B1A68E7
S21400735001321A60054B1A6801321A6061B6044B96
S2140073601B6F984708BDC046900B00207C0B002082
S214007370F49B000008B571B6064B1A6801321A6015
S214007380054B1A6801321A6061B6044B5B6F98476A
S21400739008BDC046A80B00207C0B0020F49B000014
S2140073A008B571B6064B1A6801321A60054B1A68A2
S2140073B001321A6061B6044B9B6F984708BDC04601
S2140073C0780B00207C0B0020F49B000008B571B6FB
S2140073D0064B1A6801321A60054B1A6801321A60A9
S2140073E061B6044B1B6D984708BDC046840B002051
S2140073F07C0B0020F49B000008B571B6064B1A689B
S21400740001321A60054B1A6801321A6061B6044BE5
S21400741090331B68984708BDC00B00207C0B0020EB
S214007420F49B000008B571B6064B1A6801321A6064
S214007430054B1A6801321A6061B6044BDB6C98473C
S21400744008BDC046E80F00207C0B0020F49B00001F
S21400745008B571B6044B1A6801321A6061B600208E
S21400746003F046F908BDC0469C0B002010B5114934
S2140074700520FDF77BF9012003F03AF90E4C201C9D
S21400748001F018FB201C01F077FB0020FCF766FFDC
S214007490FDF7CEFB012003F0C1F90020052103F023
S2140074A0DFF8FDF721FD054B002BFAD000E000BF0A
S2140074B0F7E7C046E0C70100101E002000000000ED
S2140074C071B6034B1A6801321A6061B6F8E7C04617
S2140074D0F40F002008B5034803493122302300F09A
S2140074E057FA08BDC80B00204418002038B5134DC5
S2140074F01349281C00F03EF81249134800F03AF8E9
S2140075001249134800F036F81249134800F032F8D2
S2140075101249134800F02EF8124C1349201C00F0B4
S21400752029F8291C24222323104800F031FA211CB4
S214007530002201230E4800F02BFA38BD3C1800202C
S214007540001C0042000C00424018002000100042C0
S214007550441800200014004238180020001800428A
S214007560481800204C18002000080042F80F0020A1
S2140075701814002001607047F7B508AC2678046838
S2140075809D1E27686C1EA541ECB2920705683A431B
S21400759027063A432A600268072529405068B50145
S2140075A0002C00D05C03294301430C435460F7BD14
S2140075B030B50368C0251C68AD0312052A40224377
S2140075C0C024A402090421401143196003685A68C4
S2140075D014435C6030BD036801211A680A431A60D0
S2140075E00268116801231942FBD1D1691942F8D10A
S2140075F07047036802211A680A431A600268D36952
S2140076009907FCD470470268137E9907FCD570472B
S214007610036800225A8370470368187E4007C00F2D
S21400762070470368588B4007C00F70470368588B35
S2140076308007C00F70470368588B012318407047B7
S2140076400368188DC0B2704703681A7E0120024294
S214007650FBD019857047036801211A680A431A602F
S2140076600268116801231942FBD1D1691942F8D189
S2140076707047036802211A680A431A600368DA69C9
S2140076809107FCD45A8B30218A4310210A435A832F
S2140076900268D3695907FCD47047036880221968CA
S2140076A05968D2020A435A60704700000368034ACA
S2140076B0196859680A405A607047C046FFFFFBFFCA
S2140076C030B5036803241D680C40074A5968240433
S2140076D00A40ED0622436D0F5A60052D03D102685D
S2140076E0D3695907FCD430BDFFFFFCFF49001143A6
S2140076F0036830B5CDB2598B03240909214001290E
S21400770004D0598B09090C40022CF4D1596AC90AD5
S214007710C902294359620368002A03D11A7ED10799
S214007720FCD50DE0187E01224008104008D1197ED5
S2140077301142F7D05968C02292020A435A6003E009
S2140077405B8B01209B08984330BD03682833197073
S2140077500268107E0123184003D1518B1942F8D0DD
S21400776003E0528B181C9208904370470368283336
S214007770197003681A7E5107FCD55B8B01209B08A5
S2140077809843704703681868C006400F05384342A0
S2140077905841C0B2704703681868C006400F0438E6
S2140077A043425841C0B270470368187E4007C00F76
S2140077B070470368187E0123184070470368588B8B
S2140077C0C006C00F70470368187E8007C00F70475A
S2140077D00368588B0007C00F704703681A68D20604
S2140077E0520F052A02D11A7E9107FCD52833187845
S2140077F0C0B270470368224A70B5934211D0214A3E
S214007800934211D0204A934211D0204A934211D07D
S2140078101F4A934211D01F4A93422FD10E24192596
S2140078200DE0092414250AE00A24152507E00B2498
S214007830162504E00C24172501E00D24182566B251
S214007840301CFFF79FFCB608134BB600F618032152
S214007850C0239B000C40F2588C40FF21A1408A4375
S214007860C021A1400C1C1443F4508023DB011D43AF
S2140078700A4B5D805A7852B2002AFBDB70BDC046C8
S21400788000080042000C00420010004200140042B3
S21400789000180042001C004200E100E0000C00401E
S2140078A0F8B5041C151C0E1C1F1CFFF7A3FF201C9C
S2140078B0FFF791FEB1001C220A4069072368090CF5
S2140078C00A431A60226884239375012E1AD1082170
S2140078D0012D00D110210C4B79431868C00009F027
S2140078E04FF9236807219A890140D2044903D20C34
S2140078F00A439A8123680004C20C9889400B40030F
S21400790010439881F8BDC0460400002038B5041C1A
S2140079100D1CFFF76FFF201CFFF79DFE2368142247
S2140079201A60074B6900186809F02AF92468421E95
S214007930E068FF231A4098431043E06038BDC04615
S214007940040000200120704710B5041C0069FFF7F2
S21400795042FE201C143000F0EBF810BD08B500699C
S214007960FFF751FE08BD08B5143000F0FFF808BD5B
S21400797008B5143000F008F908BD08B5143000F05A
S214007980E1F808BD08B50069FFF75EFE012008BDF6
S214007990F8B51D1C00234360FA239B008360084B48
S2140079A0041C0833036014300F1C161C00F0A0F8EB
S2140079B0044B2761E654044B201CE554F8BDC04632
S2140079C0B0CC01001C0400001D04000010B5041C0F
S2140079D00069FFF721FE002807D02069FFF730FE78
S2140079E0011C201C143000F093F82069FFF719FEE4
S2140079F0002809D12069FFF719FE002804D1206964
S214007A00FFF719FE002802D02069FFF701FE10BD1F
S214007A100F23081C984330384342584170470020D3
S214007A2070470F231940012905D002394B424B41BC
S214007A300220C01A00E0002070470000F0B51E4B80
S214007A4085B00391041C1827C05C3B1C43431B4EA7
S214007A500821F3185956151CFCF71EFC184B082174
S214007A60E05C4743F6197156FCF716FC01210A1C28
S214007A70039B2069FFF714FF291C201CFFF7CFFF8C
S214007A80291C071C201CFFF7CCFF291C061C201CE9
S214007A90FFF7BEFF331C0090391C20690122FFF758
S214007AA06BFD206901210322FFF782FD2069FFF7A5
S214007AB0A0FD05B0F0BDC0461C040000FCC70100D8
S214007AC01D04000008B51322FFF7B8FF08BD00002C
S214007AD008B50248FFF77AFF08BDC0461814002014
S214007AE008B50248FFF772FF08BDC046F80F002031
S214007AF038B58025ED002A1C0021041C03F028FC64
S214007B00024A00236351201CA35038BD0404000021
S214007B108023DB0030B5C458044D621C45599205DD
S214007B20920DAA4201D00155C25030BD0404000097
S214007B3080220023D2008350014A83507047C046FB
S214007B4004040000084A8021C900835841588B422B
S214007B5006D0C15C01339B059B0D8350081C01E0D9
S214007B60012040427047C046040400008023DB002A
S214007B70C258044BC358D01A02D58023DB00C01865
S214007B807047C04604040000054B8022D200C3584C
S214007B908258934201D0C05C01E001204042704709
S214007BA0040400008023DB00C258054B0132C35892
S214007BB09205920DD01A43425841C0B27047C04653
S214007BC004040000F8B5061C0C1C8F180025BC42E7
S214007BD007D0336821781B68301C984701342D186D
S214007BE0F5E7281CF8BD38B5051C0C1C081E07D088
S214007BF003F0BCFE2B68021C5B68281C211C9847FF
S214007C0038BD08B5FFF7EFFF08BD10B504680B1CBC
S214007C109A6809686368984710BD08B5FFF7E3FFE0
S214007C2008BD08B503681B68984708BD08B5024933
S214007C30FFF7D9FF08BDC0461EC5010038B5041CB5
S214007C40FFF7D1FF051C201CFFF7F0FF281838BDF2
S214007C5038B5041CFFF7D9FF051C201CFFF7E6FF0C
S214007C60401938BD38B5041CFFF7BDFF051C201CA5
S214007C70FFF7DCFF281838BDF0B58BB0151C09AB34
S214007C800022071C0E1C1A70012D00D80A256C460F
S214007C902334301C291C08F073FF031C6B43F61AB0
S214007CA0F6B2211C092E01D8303600E03736F6B27F
S214007CB02670013C002801D0061CEAE7381CFFF7B6
S214007CC092FF0BB0F0BDF8B5041C0D1C161E04D1B7
S214007CD00368C9B21B68984712E00A2A0DD100292A
S214007CE00ADA2D21FFF79DFF6942071C321C201C73
S214007CF0FFF7C2FFC01903E000E0D2B2FFF7BCFFF7
S214007D00F8BD08B5FFF7DFFF08BD38B5041CFFF760
S214007D10DAFF051C201CFFF789FF281838BD08B5B8
S214007D20002A04D10368C9B21B68984702E0D2B2A1
S214007D30FFF7A2FF08BD08B5FFF7F1FF08BD38B58D
S214007D40041CFFF7ECFF051C201CFFF76FFF28182C
S214007D5038BD08B5FFF7E3FF08BD38B5041CFFF7CC
S214007D60DEFF051C201CFFF761FF401938BD000030
S214007D70F7B51C1C08AB1B78071C211C101C151C17
S214007D80009303F0F3FC002802D1381C504907E0AA
S214007D90281C211C03F0EAFC012804D14D49381C9C
S214007DA0FFF721FF7CE0281C211C404B3E4A08F0D0
S214007DB0C1FF002802D0381C4749F1E7281C211CC7
S214007DC03B4A3C4B08F0A2FF0028F4D1281C211C9B
S214007DD0394A3A4B08F09AFF002808D02D21381C63
S214007DE0FFF71FFF802109060190641800E001904C
S214007DF00026334A334B00998E420AD0101C191CB9
S214007E00314A324B0AF0CEF80136021C0B1CF6B291
S214007E10F1E7281C211C09F0A9FD0D1C041C09F023
S214007E201BF8061C0BF054FB0B1C021C291C201C08
S214007E300AF0B2FF0A22041C0D1C381C311CFFF786
S214007E401BFF019B0099C618002904D0381C234943
S214007E50FFF7C9FE3618009B002B20D01A4A1B4B92
S214007E60201C291C0AF008FD0D1C041C0BF0BEFA91
S214007E7001900A220199381CFFF725FF3618019851
S214007E800BF0E8FA0B1C021C291C201C0AF084FFCD
S214007E90009B041C013BDBB20D1C0093DBE7301C8F
S214007EA0FEBDC046C046C046000000E0FFFFEF41F2
S214007EB0000000E0FFFFEFC100000000000000002F
S214007EC0000000000000E03F00000000000024402A
S214007ED0E0CC0100E4CC0100E8CC010093C1010035
S214007EE037B5041C0698C1B20091201CFFF740FF6E
S214007EF0051C201CFFF79AFE28183EBD094B1A1CCD
S214007F00FC32506891681A1C884206D1FF335B7AAF
S214007F10002B02D10120404203E0131CFC339B6877
S214007F20D05C70475018002013B502686B46D971B4
S214007F3007335468191C0122A04716BDF0B58022ED
S214007F40C1B069465200022000F068FDEFF31085CC
S214007F5001231D40AC4672B6104A0021131CFC33A8
S214007F605B68814212D0141CFF34667A002E0DD155
S214007F706D466F5C5E1CD754F3B2161CFC36B668B2
S214007F80B34201D1012666720131EAE7FC32536042
S214007F906346002B00D162B641B0F0BD50180020F9
S214007FA038B5184C051C231CFC335A689B689A424B
S214007FB00DD1231CFF335B7A002B08D1022000F082
S214007FC005FD002803D02B68281C9B699847231CB6
S214007FD0FC335A689B689A4207D1231CFF335B7AAE
S214007FE0002B02D1012040420AE0231CFC339A6891
S214007FF0A05C9A68FF340132D2B29A6000236372A2
S21400800038BDC0465018002008B5032000F07AFCA2
S21400801008BD00000C4B1A1CFF32527A002A10D101
S2140080201A1CFC3251689268914204D14A220749D0
S2140080300120FF328854FC3358689B68C01AC0B2CF
S21400804001E080204000704750180020005000419A
S21400805010B5074B041CDB79002B04D0032000F07E
S214008060ABF9002801D001236360002010BDC04694
S2140080705000002008B503784221023303700248FE
S21400808000F012FA08BDC0460C00002010B50178BA
S214008090031C42780020A12907D1212A2DD1174898
S2140080A0072100F001FA012027E0212925D1202A06
S2140080B004D10721114800F06BFC04E0222A10D1FD
S2140080C09A780E4BDA710D4B96221968D2009142BF
S2140080D010D1DC7901231C400CD1FA2000F022FEDE
S2140080E00AE0232A09D1DA789B7812021A43044B55
S2140080F01A6002E000F020FE002010BD50000020B4
S21400810008000020054B00225A60FA2292009A606E
S214008110034A08321A60034A1A6170475C19002045
S214008120F0CC0100101E0020036870B59B68041C8C
S2140081300D1C98472368061C291CDB68201C9847E2
S214008140F0B270BD13B56B461870141C00235A1C91
S214008150A34206D0131C8A18013A12786846C25405
S214008160F5E76946042000F027F913BD08B502209C
S2140081700822FFF7E7FF08BD10B5872902D9783136
S214008180C9B218E04BB2002B08DA803901238B40C5
S214008190191C037A1943017200210CE0194B595C33
S2140081A000292BD04BB2002B05DA037A02221343A8
S2140081B003727F231940837A8B4219D0C37A8B428D
S2140081C016D0037B8B4213D0437B8B4210D0837B2D
S2140081D08B420DD0C37B8B420AD00023C218947A00
S2140081E0002C01D1917203E00133062BF6D105E095
S2140081F0011C0831FFF7BAFF012002E001234360AB
S214008200002010BD38CD010010B5872902D978317D
S214008210C9B219E04BB2002B08DA803901238B4033
S214008220191C037A8B43037200210DE0114B595C35
S214008230002399421BD04BB2002B05DA037A0222A8
S214008240934303727F231940031C0622002904D09F
S2140082509C7A8C4201D100249C72013AD2B201333E
S214008260002AF3D1011C0831FFF780FF0123181CF8
S21400827010BDC04638CD010008B5011C002383722E
S214008280C372037343738373C37303720831FFF7B8
S2140082906DFF08BD044B00221A70044B5A60044A56
S2140082A008321A607047C0467419002078190020FA
S2140082B018CD010070B5C2B219495301CB189E689B
S2140082C0184DC0242E40A40526439E60164E8001FD
S2140082D009683018083258605201505C0726B043CF
S2140082E00126304350549E6935402C439C610F4C08
S2140082F05C61505C7024A0431024204350549C685A
S2140083000B488A18204080246403204398609868AD
S2140083104021800B8003986053790B43537170BDE6
S214008320181E0020FFFFFF8F4C1C00208C1A002018
S214008330FF3F00F038B5041C08CC01211A78051C54
S2140083400A431A708022201C0021520003F000F815
S2140083502B689A78D107FCD45C6238BD134BF0B515
S2140083601B6899035A029B01C90ED20E5B0F1F2988
S21400837000D105211F2A00D11D22072B00D103237F
S21400838004688E01278D0A491F253940314321850F
S21400839001682A400C8DAC4322430A850268190303
S2140083A0108D044B03400B431385F0BD2460800002
S2140083B03FF8FFFFFF8FFFFFF0B5264B85B01B6829
S2140083C0071C0E1C141C002B40D08023DB019A4295
S2140083D03CD88022204B12055A61002C34D0251E32
S2140083E03F2D00D940251D4ABB01D318181C311C4F
S2140083F02A1C039302F018FFF9B2194A03984B019E
S214008400D3185861A804800C039002919969880BD0
S21400841003998003014399610299126808314B0160
S214008420D3180220D87101925A79802003924242D2
S214008430039810435871019A4B01D318DB799807BB
S214008440F9D5641B7619C8E7201C01E001204042DC
S21400845005B0F0BD1C1F0020004400418C1A00200F
S214008460181E002070B50D4D8301ED18061C281C43
S214008470141CF6B202F0D8FE094B76019B195D611A
S2140084809969084A201C0A409A619A69A104920BCD
S214008490890C92030A439A6170BDC0468C1A00206C
S2140084A0181E0020FF3F00F0F8B5114B071C1B7884
S2140084B00C1C002B1AD10F4B1E78002E01D10D1C60
S2140084C00AE00D4D0D482E88391C8019221C3619DD
S2140084D002F0AAFE2E8009E0002D07D0B9192A1C4A
S2140084E00020FFF7BFFF36182D1AF5E7201CF8BD51
S2140084F00F1E00200D1E0020881A0020881900205C
S21400850008B5044B00221A70034B04481988FFF77D
S214008510CBFF08BD0D1E0020881A002088190020F9
S214008520F8B5051C00AF012920D94B085B000833BD
S214008530DB086A46DB00D21A954668460122AB186D
S214008540013B1C785300002C0AD1C02292001A432B
S214008550191C0280FFF7A8FF431E9841C0B206E030
S214008560DEB2B142F1D0C4520132E8E70020BD4687
S214008570F8BD37B500236C46E3710734051C201C94
S214008580FFF778FD2B681818286020783EBD00009D
S214008590F0B51D4B87B000250090012702A81F707C
S2140085A00295FFF7E6FF03AC09260190291C201C64
S2140085B0321C02F0CDFE022363708023E371FA239F
S2140085C02372029B26709B196380019B677123713F
S2140085D00D4B1D70009BB34204D1201C191CFFF7E5
S2140085E063FF0DE0094B311C1F70094B201C1D80DA
S2140085F00295FFF759FF02A8FFF7BBFFFFF780FFC2
S214008600012007B0F0BDC0460F1E00200D1E002042
S214008610881A002008B5C278031C022A06D1C08832
S214008620FFF7B6FF431E9841C0B225E0012A04D1E9
S214008630C188124811291BD817E00020032A1BD135
S2140086409A78824205D10E48D98803788B420CD896
S2140086500EE0022A02D199790A4803E0012A0BD1DA
S21400866099790948FFF75CFF06E0C9B2002900D1F6
S2140086700178FFF719FF012008BDC046C8CD0100EC
S214008680B8CD0100DACD0100BCCD010038B5832994
S21400869016D1C2B230495301CB189D692F4C8001C8
S2140086A02C40C025AD052C439C612D4C083220186B
S2140086B058610B685201D15C70208143402043E032
S2140086C0022923D1C1B2244A4B01D3189D68234CFA
S2140086D080012C40C025AD052C439C60214C1268BF
S2140086E02018083158604901885C0724A0430324F9
S2140086F02043885499681C4A0A40802149030A434B
S2140087009A609A68920B92039A6024E082291ED19E
S214008710C2B211495301CB189D69104C80012C4000
S214008720C025AD052C439C610D4C083220185861BD
S2140087300B68520199180C7980204042204308713A
S214008740D15C7020814330200143D15403E00029DE
S21400875001D1FFF7AFFD38BD181E0020FFFFFF8FC9
S2140087608C1A00204C1C0020FF3F00F00F4B9A692B
S214008770920B92039A611B680222FF331A72997950
S214008780802252420A439A711A7A9107FCD5084B06
S214008790011C987A7F221140904308439872997A78
S2140087A0802252420A439A727047C046181E002022
S2140087B00050004110B50124054BA200D1580029F5
S2140087C005D0201C0134FFF761FFE4B2F4E710BDCA
S2140087D05800002037B5041C40780B2871D808F0E4
S2140087E0C5F9081A7026703B3F06434662680020AB
S2140087F068E0207801A9002802D10870487008E0D7
S21400880000230B704B70304B1B78012B00D10B7084
S214008810002002224AE0A2780023012A04D101A9FE
S2140088200B704B70294BEFE7274A137044E0A5788E
S214008830012D06D1254B01A900201D7008702A1CA9
S21400884034E0002D08D1204B01201870204B9A6987
S214008850920B92039A6135E0A078FFF787FF30E02D
S214008860201CFFF7D7FE2DE000201A491DE02378D4
S2140088700020DA0626D1FFF79DFFA278154B2A21A5
S2140088801A60134AFF3113680224585C2043585478
S2140088904A21FF315C5C012004435C5493699B0BC6
S2140088A09B0393610EE00C4900200122FFF7DAFDDE
S2140088B007E0A278084B1A60054B9A69920B920360
S2140088C09A6101203EBDC0460C1E00200E1E0020F0
S2140088D0181E00201C1F0020141E002008B5027958
S2140088E000239A4209D1FFF7D1FB031E05D1044BA2
S2140088F09A69920B92039A610123181C08BDC04620
S214008900181E0020C3B2094A590151188968890403
S2140089100AD0106808335B01C018427980235B4296
S214008920134343710223C3717047C046181E0020CC
S21400893070B5C2B2134B14495401800118180B19B4
S21400894058609D681148083228408025AD022843AB
S214008950986098684026800B800398600B685001EA
S21400896018180579354305715001181880794506A1
S214008970FAD550011818C079C507FAD50C19A068A1
S214008980C0B270BD4C1C0020181E0020FF3F00F037
S21400899038B50C4B0C1C1B684021FF335A79051C5C
S2140089A00A435A710020FFF7C3FFA04200D9201CDB
S2140089B00023A34204D0044A9A5CEA540133F8E741
S2140089C038BDC046181E00204C1C0020034BC0B209
S2140089D04001181880688004800C7047181E00201C
S2140089E010B5C0B20C4940010B189A689204920C5C
S2140089F03F2A08D9141C9A68403CA404920BA40C85
S214008A009203224302E09A68920B92039A60081837
S214008A108068C0B210BDC046181E0020F7B5214BB6
S214008A20071C1B680191141C002B35D01E4B082216
S214008A30C5B21E4E1A606B01F3189A689204920C27
S214008A40A24202D29C68A404A40C381CFFF7C8FFFC
S214008A50326869015318FF335A7A009101210A439C
S214008A601349BF015A72C9190198221C02F0DCFB97
S214008A700020844214D0009AB3189B689B0483425B
S214008A800DD1336808356D015D192B7940221343EB
S214008A902B710123EB7102E00120404200E0201C14
S214008AA0FEBDC0461C1F002094440041181E002036
S214008AB04C1C002038B5274B2021DA69051C0A43D8
S214008AC0DA61254B01201A78062402431A70234BDC
S214008AD00F2219789143197019782143197020498B
S214008AE00C782043087019780A401A701A786021AA
S214008AF00A431A701B4B1C4A5A805A78D209FCD17A
S214008B001A4801F071F81A4C201CFFF713FC201CC1
S214008B10FFF724FC23687F22197807200A401A7082
S214008B201A7804210A431A701A890C218A431A817A
S214008B30104AC1239B00D1580902090AD150FEF7FA
S214008B4021FB236802211A780A431A7001232B702E
S214008B5038BDC04600040040584400413C44004133
S214008B6059440041000C0040064000001D8D0000E6
S214008B70181E002000E100E00078002810D0094B05
S214008B8001211B681A898A431A811A8B08210A4315
S214008B901A831A8B04210A431A83034B00221A6095
S214008BA07047C046181E00201C1F0020014A024BBA
S214008BB01A60704700500041181E002008B50228B1
S214008BC007D1134B9B6C9B0420D01248FFF7B6F9D5
S214008BD01CE003280BD10E4BB2221B685200985C97
S214008BE08021494201439954022168220CE0012861
S214008BF00CD1074B92221B685200985C8021494298
S214008C000143995402212822FF32995408BDC046D8
S214008C10181E00205C190020394B70B51C78002CFB
S214008C206CD1384D29688B8B1A070DD5201CFFF7A1
S214008C3041FB2B6810201A1CFF32917A0143917277
S214008C40314A146008229A832B689A8B510701D503
S214008C5004229A83FF331A7AD10625D510221A7277
S214008C605A7940210A4329485A71027860231A42E9
S214008C7002D1FFF7AFFD01E0FFF730FE002806D077
S214008C802B688022FF33997952420A4301E0204B39
S214008C9020229A712B68FF331A7A510604D5402297
S214008CA01A72597A0A435A721A4B802212059A612E
S214008CB0194B08221A602A68FE23168C00241E40D0
S214008CC0E0B2002E1AD0321C012322411A420ED0E6
S214008CD0221C2968083252018A18D17919420AD111
S214008CE0D279DA401A4206D10123A3409E430134CA
S214008CF0092CE5D102E0FFF761FFF5E770BDC0463D
S214008D000D1E0020181E00201C1F00204C1C0020DA
S214008D10FF500041004400419844004108B5FFF769
S214008D207BFF08BD08B5024B1860024B9847C0464B
S214008D3068000020BDF50100024B012252421A6075
S214008D407047C0466800002010B5041C006801F09B
S214008D50B5FF201C10BD10B5041C0068002801D00B
S214008D6001F0ACFF00232360A360636010BD38B53C
S214008D70041C0D1C0068013102F03CFB002801D0E9
S214008D8021C4012038BD036810B5041C002B02D096
S214008D9043688B4209D2201CFFF7E9FF002805D064
S214008DA0A368002B01D122681370012010BD70B596
S214008DB00E1C111C041C151CFFF7E5FF002803D130
S214008DC0201CFFF7C8FF04E0A5602068311C02F0F5
S214008DD0A7FD201C70BD38B50023041C0D1C0360C5
S214008DE043608360994207D0081C02F0BFFD291C2F
S214008DF0021C201CFFF7DBFF201C38BD10B50B1C27
S214008E00041E8C4208D00968002903D09A68FFF730
S214008E10CEFF01E0FFF79FFF201C10BD10B500231A
S214008E20041C036043608360FFF7E8FF201C10BD4E
S214008E3038B5041C0D1E08D0081C02F097FD291C2E
S214008E40021C201CFFF7B3FF01E0FFF784FF201C85
S214008E5038BDF8B5041C0F1C866801D100250FE04C
S214008E600125002A0CD09619311CFFF78CFF00282C
S214008E70F4D02268A368391CD01802F051FDA66011
S214008E80281CF8BD38B5051C0C1C081E06D002F0C0
S214008E906DFD211C021C281CFFF7DBFF38BD07B543
S214008EA0002201AB19705A70191C0122FFF7D1FF7E
S214008EB00EBD13B50A22041C081C01A9FBF72FFBE4
S214008EC001A802F053FD01A9021C201CFFF7C1FFF8
S214008ED016BD836810B59A4207D20468A01802F03F
S214008EE0A9FC002801D0001B01E00120404210BD73
S214008EF008B50022FFF7EDFF08BD836810B59A425B
S214008F0008D204680968A01802F028FF002801D0DB
S214008F10001B01E00120404210BD08B50022FFF70B
S214008F20ECFF08BDF7B5071C0E1C141C1D1C9A424E
S214008F3001D92C1C151C381C0C49FFF74CFFB368D4
S214008F409C4210D89D4200D91D1C3268381C53190B
S214008F501A78019200221A7033681919FFF768FF11
S214008F603368019A5A55381CFEBDC04620C501001C
S214008F70006808B5002801D001F050FE08BDF7B51E
S214008F80002401900D1C261C019A281C131919791F
S214008F900A22FEF7D0FE2E21071C281CFEF741FEF3
S214008FA00134C719F619032CEED1019B281CD97978
S214008FB00A22FEF7C0FE3018FEBD000030B503AC36
S214008FC0044D247808350560017142718371C471BF
S214008FD030BDC046F0CD0100044A054B08321A6089
S214008FE000221A715A719A71DA717047F0CD010039
S214008FF0201F0020831E052B01D80E4B14E0031CF7
S214009000083B012B01D80C4B0EE00C2801D00A2897
S21400901005D10A4B02211A888A431A8008E00D28D7
S21400902001D00B2804D1064B1A6802218A431A6025
S2140090307047C0460020004200240042002C004238
S2140090400028004210B50B4CA37BDA070DD50A4A60
S2140090501368013B1360002B07D1084B1878FFF705
S214009060C9FF2388022293432380A27BFE23134357
S214009070A37310BD00340042281F00202C1F0020C0
S214009080F8B5051C0F1C161C0024B44208D02B682B
S214009090395D1B68281C9847002801D00134F4E786
S2140090A0201CF8BD704708B51830FEF74BFD08BD0C
S2140090B008B51830FEF75AFD08BD08B51830FEF79B
S2140090C063FD08BD38B5041C00690D1CFEF75AFB8D
S2140090D0002810D0A37D002B12D08423DB00E418D8
S2140090E0201CFEF75FFD00280AD1201C291CFEF775
S2140090F00FFD012005E02069291CFEF737FB00E084
S214009100002038BDF7B50193FA239B0083600B4B14
S21400911000250833041C4560036018300F1C161C1D
S214009120FEF7E6FC8423DB00E018FEF7E1FC019B7B
S21400913027612675A575201C6375FEBD00CE01004F
S21400914070B50D49041C0069FEF7E0FB2069FEF7C8
S21400915090FA1826207D331C4343084D0821EB184F
S2140091605956FBF799F8607D08214643AD196956B4
S214009170FBF792F870BDC046A0860100FCC7010050
S214009180F7B5041C0020151C019382422DD02069DF
S2140091900122FEF7ABFA002825D02069FEF71DFB5A
S2140091A0271C1837011C381CFEF7B2FC0126206964
S2140091B0AE420ED0FEF77AFA02212069FEF780FA58
S2140091C02069FEF70AFB011C381CFEF7A1FC0136DD
S2140091D0EDE7FEF762FA019B002B05D0206903211C
S2140091E0FEF76EFA00E0051CE8B2FEBD08B50123E6
S2140091F0FFF7C6FF08BD0000054B10B5C154842319
S214009200DB00041CC018FEF793FC0123A37510BDF9
S21400921028080000F8B50022184B8275041C0F1CA5
S214009220C15C0069FEF762FA002805D120690321B7
S214009230FEF746FA02251EE08423DB00E618301C03
S214009240FEF794FC00280FD0301C2569FEF77AFC48
S214009250C1B2281CFEF779FA0028EDD12069032157
S214009260FEF72EFA032506E0051C002F03D0206922
S2140092700321FEF725FA281CF8BDC0462808000082
S21400928008B50121FFF7C6FF08BD000038B5041C6D
S2140092900069FEF780FA002863D02069FEF789FA95
S2140092A000280ED12069FEF78EFA00281FD020690C
S2140092B0FEF784FA00281AD02069FEF789FA0028FB
S2140092C015D12069FEF7F2F920690321FEF7F8F9B7
S2140092D083231B01E558002D04D02368201C9B68BF
S2140092E09847A847201C1830FEF722FC39E0206972
S2140092F0FEF769FA031C2069002B15D0FEF7D6F995
S21400930020690321FEF7DCF92069FEF761FA0028E0
S21400931027D02069FEF748FA0028FAD0114BE35808
S214009320002B1ED098471CE0FEF73EFA002818D007
S214009330251C1835281CFEF735FC031C2069002B5D
S21400934002D0FEF7AAF908E0FEF747FA011C281C2F
S214009350FEF7DEFB2069FEF7A9F920690321FEF778
S214009360AFF938BD2C08000008B50248FFF78EFF9D
S21400937008BDC046301F002008B503480349102228
S2140093801123FFF7BFFE08BD301F0020381800204D
S2140093900268C168F8B51468002900D081E001238E
S2140093A0C360D1791579C901DD403E4E6D18AD19FF
S2140093B02F78167A0F213A1C36010A403243D2B271
S2140093C02A700268D6791579F201AA18364D521914
S2140093D015781D4315700268D5795679ED01DE4083
S2140093E07519304EAD192F78167A3A1C0E408A43FE
S2140093F032432A700268D5795179EA018A182A49D7
S21400940052181178194311700168284A0969156ABB
S21400941029431162226813432360226801231A42FB
S214009420FBD1E2691A42F8D103685A7A3F231A4000
S2140094308023DB011A431E4B5A805A7852B2002A08
S214009440FBDB05680422AB7930215B071B0C13435A
S214009450236003689A79D868504307F0DFFB03045B
S214009460181A144907F08CFBC043002380B2A08171
S214009470A37522688023DB0513432360636863605B
S2140094802268C4239B03134323606268C0239B02A5
S214009490134363602368022213432360E3699E0735
S2140094A0FCD4F8BD30440041404400410004004074
S2140094B0000C004040420F0008B5431E1C205843D5
S2140094C0044A801814225343034AD3180360FFF754
S2140094D05FFF08BDD44D002020CE01001C230138BC
S2140094E05843044BC3581B681A7ED007FCD5198511
S2140094F07047C046D44D002000B5012389B00093C4
S214009500064A039309230493694602230520029220
S214009510059300F01FF809B000BDC04634CE010028
S214009520064A00231360064A1360064A1360064A7A
S2140095301360064A1360064A13607047682B0020C3
S2140095406C2B0020782B0020742B00206427002032
S214009550702B0020F7B5EFF31084019472B61E4B03
S2140095601B684B60012383409C461C4B67461B6868
S2140095703B421FD01A4D1B4A2E687301D3180A1C93
S21400958091CA91C391CA91C311CA11C3721C2B1CF4
S2140095901F2A00D900221A60134A15681F2D02D808
S2140095A00135156006E01A68104B1A60104B1A68F1
S2140095B001321A600F4B60461B68984306D0081CA1
S2140095C00D49FBF7BFF80A2000F0FCF9019F012FB8
S2140095D000D062B60020FEBD5C4F0020642700204D
S2140095E0782B002068270020682B00206C2B00209A
S2140095F0742B0020702B0020C599000008B500F0E1
S21400960079FD01F0EDF801F0C9F901F0FBF901F080
S2140096106DFA08BD08B50020FDF7B0FD002000F08B
S214009620DFF90020FFF77CFF0020FFF765FF08BD8D
S21400963008B5002000F0ECF908BD000072B60F482F
S214009640002800D0804700200D490E4A914203D2E0
S214009650086004319142FBD30B490C4B0C4A9342F1
S21400966005D208681860043104339342F9D30948D8
S214009670002800D0804700F061FCFEE779990000E2
S214009680580900206C4F0020ACF9010000000020B3
S214009690580900208D9900004046494652465B46D0
S2140096A0FFB59E4801686A468A619D4BCB61FFE024
S2140096B0FFBC8046894692469B4698480168887B50
S2140096C00422104208D00869004205D0954908686F
S2140096D0004201D09448004700BDC046934B18781E
S2140096E0EFF3108201291CD0042172460A4209D0E9
S2140096F0EFF30983083B5A60186083F3098805B4C2
S2140097009E4601E005B4EE46894B1A68894B1968F7
S21400971006B4EFF30583884998000A5870469047C8
S21400972058E0042172460A4209D0EFF30983083B49
S2140097305A60186083F3098805B4184601E005B43A
S21400974068467B4B1A687B4B196806B4EFF30583B3
S21400975079499C000A59904772B67849784A116050
S21400976003BC744A1060724B18680222114390437F
S2140097700843186001BC6D49087008BC04210B4200
S21400978000D104E0EFF30982083282F30988184713
S214009790664B1878042172460A4209D0EFF3098313
S2140097A0083B5A60186083F3098805B49E4601E0BA
S2140097B005B4EE465E4B1A685E4B196806B4EFF3C6
S2140097C005836049CA5C594802705B4998000A588C
S2140097D07046904772B65949594A116003BC554ABB
S2140097E01060534B186802221143904308431860D8
S2140097F001BC4E49087008BC04210B4200D108E0A9
S214009800EFF30982083282F309884F480268012A7A
S21400981001D062B61847002101604C484C49EFF36E
S2140098200982083A51601060183A82F3098818478E
S2140098303A48016847480268012A14D14648026837
S214009840914210D04046494652465B46FFB4334AE2
S214009850116868468861414ACA6129E0FFBC8046B3
S214009860894692469B462D4A1168887B0422104200
S21400987008D00869002805D02A490868002801D0C1
S21400988000F0F2FC36483749016062B6FEE7FEE7B4
S214009890EFF30980203080F30988002070473248B3
S2140098A0016881F30888022080F31488BFF36F8F65
S2140098B029480168194A1160002903D08A6995462B
S2140098C0CA699746002080F31488BFF36F8F002480
